{
  "contractName": "ticketingSystem",
  "abi": [
    {
      "constant": true,
      "inputs": [],
      "name": "concertCount",
      "outputs": [
        {
          "name": "",
          "type": "uint256"
        }
      ],
      "payable": false,
      "stateMutability": "view",
      "type": "function"
    },
    {
      "constant": true,
      "inputs": [
        {
          "name": "",
          "type": "uint256"
        }
      ],
      "name": "ticketsRegister",
      "outputs": [
        {
          "name": "concertId",
          "type": "uint256"
        },
        {
          "name": "owner",
          "type": "address"
        },
        {
          "name": "isAvailable",
          "type": "bool"
        },
        {
          "name": "isAvailableForSale",
          "type": "bool"
        },
        {
          "name": "amountPaid",
          "type": "uint256"
        }
      ],
      "payable": false,
      "stateMutability": "view",
      "type": "function"
    },
    {
      "constant": true,
      "inputs": [],
      "name": "venueCount",
      "outputs": [
        {
          "name": "",
          "type": "uint256"
        }
      ],
      "payable": false,
      "stateMutability": "view",
      "type": "function"
    },
    {
      "constant": true,
      "inputs": [
        {
          "name": "",
          "type": "uint256"
        }
      ],
      "name": "artistsRegister",
      "outputs": [
        {
          "name": "name",
          "type": "bytes32"
        },
        {
          "name": "artistCategory",
          "type": "uint256"
        },
        {
          "name": "owner",
          "type": "address"
        }
      ],
      "payable": false,
      "stateMutability": "view",
      "type": "function"
    },
    {
      "constant": true,
      "inputs": [
        {
          "name": "",
          "type": "uint256"
        }
      ],
      "name": "venuesRegister",
      "outputs": [
        {
          "name": "name",
          "type": "bytes32"
        },
        {
          "name": "capacity",
          "type": "uint256"
        },
        {
          "name": "standardComission",
          "type": "uint256"
        },
        {
          "name": "owner",
          "type": "address"
        }
      ],
      "payable": false,
      "stateMutability": "view",
      "type": "function"
    },
    {
      "constant": true,
      "inputs": [
        {
          "name": "",
          "type": "bytes32"
        }
      ],
      "name": "venuesID",
      "outputs": [
        {
          "name": "",
          "type": "uint256"
        }
      ],
      "payable": false,
      "stateMutability": "view",
      "type": "function"
    },
    {
      "constant": true,
      "inputs": [],
      "name": "artistCount",
      "outputs": [
        {
          "name": "",
          "type": "uint256"
        }
      ],
      "payable": false,
      "stateMutability": "view",
      "type": "function"
    },
    {
      "constant": true,
      "inputs": [],
      "name": "ticketCount",
      "outputs": [
        {
          "name": "",
          "type": "uint256"
        }
      ],
      "payable": false,
      "stateMutability": "view",
      "type": "function"
    },
    {
      "constant": true,
      "inputs": [
        {
          "name": "",
          "type": "uint256"
        }
      ],
      "name": "concertsRegister",
      "outputs": [
        {
          "name": "artistId",
          "type": "uint256"
        },
        {
          "name": "venueId",
          "type": "uint256"
        },
        {
          "name": "concertDate",
          "type": "uint256"
        },
        {
          "name": "ticketPrice",
          "type": "uint256"
        },
        {
          "name": "validatedByArtist",
          "type": "bool"
        },
        {
          "name": "validatedByVenue",
          "type": "bool"
        },
        {
          "name": "totalSoldTicket",
          "type": "uint256"
        },
        {
          "name": "totalMoneyCollected",
          "type": "uint256"
        }
      ],
      "payable": false,
      "stateMutability": "view",
      "type": "function"
    },
    {
      "inputs": [],
      "payable": false,
      "stateMutability": "nonpayable",
      "type": "constructor"
    },
    {
      "anonymous": false,
      "inputs": [
        {
          "indexed": false,
          "name": "name",
          "type": "bytes32"
        },
        {
          "indexed": false,
          "name": "id",
          "type": "uint256"
        }
      ],
      "name": "createdArtist",
      "type": "event"
    },
    {
      "anonymous": false,
      "inputs": [
        {
          "indexed": false,
          "name": "name",
          "type": "bytes32"
        },
        {
          "indexed": false,
          "name": "id",
          "type": "uint256"
        },
        {
          "indexed": false,
          "name": "sender",
          "type": "address"
        }
      ],
      "name": "modifiedArtist",
      "type": "event"
    },
    {
      "anonymous": false,
      "inputs": [
        {
          "indexed": false,
          "name": "name",
          "type": "bytes32"
        },
        {
          "indexed": false,
          "name": "id",
          "type": "uint256"
        }
      ],
      "name": "createdVenue",
      "type": "event"
    },
    {
      "anonymous": false,
      "inputs": [
        {
          "indexed": false,
          "name": "name",
          "type": "bytes32"
        },
        {
          "indexed": false,
          "name": "id",
          "type": "uint256"
        }
      ],
      "name": "modifiedVenue",
      "type": "event"
    },
    {
      "anonymous": false,
      "inputs": [
        {
          "indexed": false,
          "name": "concertDate",
          "type": "uint256"
        },
        {
          "indexed": false,
          "name": "name",
          "type": "bytes32"
        },
        {
          "indexed": false,
          "name": "id",
          "type": "uint256"
        }
      ],
      "name": "createdConcert",
      "type": "event"
    },
    {
      "constant": false,
      "inputs": [
        {
          "name": "_name",
          "type": "bytes32"
        },
        {
          "name": "_artistCategory",
          "type": "uint256"
        }
      ],
      "name": "createArtist",
      "outputs": [],
      "payable": false,
      "stateMutability": "nonpayable",
      "type": "function"
    },
    {
      "constant": true,
      "inputs": [
        {
          "name": "_name",
          "type": "bytes32"
        }
      ],
      "name": "getArtistId",
      "outputs": [
        {
          "name": "ID",
          "type": "uint256"
        }
      ],
      "payable": false,
      "stateMutability": "view",
      "type": "function"
    },
    {
      "constant": false,
      "inputs": [
        {
          "name": "_artistId",
          "type": "uint256"
        },
        {
          "name": "_name",
          "type": "bytes32"
        },
        {
          "name": "_artistCategory",
          "type": "uint256"
        },
        {
          "name": "_newOwner",
          "type": "address"
        }
      ],
      "name": "modifyArtist",
      "outputs": [],
      "payable": false,
      "stateMutability": "nonpayable",
      "type": "function"
    },
    {
      "constant": false,
      "inputs": [
        {
          "name": "_name",
          "type": "bytes32"
        },
        {
          "name": "_capacity",
          "type": "uint256"
        },
        {
          "name": "_standardComission",
          "type": "uint256"
        }
      ],
      "name": "createVenue",
      "outputs": [],
      "payable": false,
      "stateMutability": "nonpayable",
      "type": "function"
    },
    {
      "constant": true,
      "inputs": [
        {
          "name": "_name",
          "type": "bytes32"
        }
      ],
      "name": "getVenueId",
      "outputs": [
        {
          "name": "ID",
          "type": "uint256"
        }
      ],
      "payable": false,
      "stateMutability": "view",
      "type": "function"
    },
    {
      "constant": false,
      "inputs": [
        {
          "name": "_venueId",
          "type": "uint256"
        },
        {
          "name": "_name",
          "type": "bytes32"
        },
        {
          "name": "_capacity",
          "type": "uint256"
        },
        {
          "name": "_standardComission",
          "type": "uint256"
        },
        {
          "name": "_newOwner",
          "type": "address"
        }
      ],
      "name": "modifyVenue",
      "outputs": [],
      "payable": false,
      "stateMutability": "nonpayable",
      "type": "function"
    },
    {
      "constant": false,
      "inputs": [
        {
          "name": "_artistId",
          "type": "uint256"
        },
        {
          "name": "_venueId",
          "type": "uint256"
        },
        {
          "name": "_concertDate",
          "type": "uint256"
        },
        {
          "name": "_ticketPrice",
          "type": "uint256"
        }
      ],
      "name": "createConcert",
      "outputs": [],
      "payable": false,
      "stateMutability": "nonpayable",
      "type": "function"
    },
    {
      "constant": false,
      "inputs": [
        {
          "name": "_concertId",
          "type": "uint256"
        }
      ],
      "name": "validateConcert",
      "outputs": [],
      "payable": false,
      "stateMutability": "nonpayable",
      "type": "function"
    },
    {
      "constant": false,
      "inputs": [
        {
          "name": "_concertId",
          "type": "uint256"
        },
        {
          "name": "_ticketOwner",
          "type": "address"
        }
      ],
      "name": "emitTicket",
      "outputs": [],
      "payable": false,
      "stateMutability": "nonpayable",
      "type": "function"
    },
    {
      "constant": false,
      "inputs": [
        {
          "name": "_ticketId",
          "type": "uint256"
        }
      ],
      "name": "useTicket",
      "outputs": [],
      "payable": false,
      "stateMutability": "nonpayable",
      "type": "function"
    },
    {
      "constant": false,
      "inputs": [
        {
          "name": "_concertId",
          "type": "uint256"
        }
      ],
      "name": "buyTicket",
      "outputs": [],
      "payable": true,
      "stateMutability": "payable",
      "type": "function"
    }
  ],
  "bytecode": "0x60806040526000805560006001556000600255600060035534801561002357600080fd5b50611b21806100336000396000f3fe60806040526004361061010c576000357c010000000000000000000000000000000000000000000000000000000090048063158641f51461011157806326606448146101605780632df27c551461019b578063486ff9ae146101c657806359cb327a146102215780635dfe92911461027057806367dd74ca1461030f57806388d658461461033d5780638d640d4b146103b657806390b3b014146103e157806392fc3b081461045057806397af29301461048b578063a88ae81514610514578063acd023ba146105a4578063b8a14a27146105f3578063be53048214610642578063cfbd900f1461066d578063e03536f314610698578063e62e4f8d146106f1578063f02eafd114610736575b600080fd5b34801561011d57600080fd5b5061014a6004803603602081101561013457600080fd5b81019080803590602001909291905050506107be565b6040518082815260200191505060405180910390f35b34801561016c57600080fd5b506101996004803603602081101561018357600080fd5b81019080803590602001909291905050506107db565b005b3480156101a757600080fd5b506101b0610a99565b6040518082815260200191505060405180910390f35b3480156101d257600080fd5b5061021f600480360360408110156101e957600080fd5b8101908080359060200190929190803573ffffffffffffffffffffffffffffffffffffffff169060200190929190505050610a9f565b005b34801561022d57600080fd5b5061026e6004803603606081101561024457600080fd5b81019080803590602001909291908035906020019092919080359060200190929190505050610c50565b005b34801561027c57600080fd5b506102a96004803603602081101561029357600080fd5b8101908080359060200190929190505050610d83565b604051808681526020018573ffffffffffffffffffffffffffffffffffffffff1673ffffffffffffffffffffffffffffffffffffffff16815260200184151515158152602001831515151581526020018281526020019550505050505060405180910390f35b61033b6004803603602081101561032557600080fd5b8101908080359060200190929190505050610df3565b005b34801561034957600080fd5b506103b4600480360360a081101561036057600080fd5b8101908080359060200190929190803590602001909291908035906020019092919080359060200190929190803573ffffffffffffffffffffffffffffffffffffffff169060200190929190505050611034565b005b3480156103c257600080fd5b506103cb611275565b6040518082815260200191505060405180910390f35b3480156103ed57600080fd5b5061044e6004803603608081101561040457600080fd5b81019080803590602001909291908035906020019092919080359060200190929190803573ffffffffffffffffffffffffffffffffffffffff16906020019092919050505061127b565b005b34801561045c57600080fd5b506104896004803603602081101561047357600080fd5b81019080803590602001909291905050506114d4565b005b34801561049757600080fd5b506104c4600480360360208110156104ae57600080fd5b8101908080359060200190929190505050611535565b604051808481526020018381526020018273ffffffffffffffffffffffffffffffffffffffff1673ffffffffffffffffffffffffffffffffffffffff168152602001935050505060405180910390f35b34801561052057600080fd5b5061054d6004803603602081101561053757600080fd5b810190808035906020019092919050505061157f565b604051808581526020018481526020018381526020018273ffffffffffffffffffffffffffffffffffffffff1673ffffffffffffffffffffffffffffffffffffffff16815260200194505050505060405180910390f35b3480156105b057600080fd5b506105dd600480360360208110156105c757600080fd5b81019080803590602001909291905050506115cf565b6040518082815260200191505060405180910390f35b3480156105ff57600080fd5b5061062c6004803603602081101561061657600080fd5b81019080803590602001909291905050506115e7565b6040518082815260200191505060405180910390f35b34801561064e57600080fd5b50610657611604565b6040518082815260200191505060405180910390f35b34801561067957600080fd5b5061068261160a565b6040518082815260200191505060405180910390f35b3480156106a457600080fd5b506106ef600480360360808110156106bb57600080fd5b8101908080359060200190929190803590602001909291908035906020019092919080359060200190929190505050611610565b005b3480156106fd57600080fd5b506107346004803603604081101561071457600080fd5b810190808035906020019092919080359060200190929190505050611862565b005b34801561074257600080fd5b5061076f6004803603602081101561075957600080fd5b8101908080359060200190929190505050611982565b6040518089815260200188815260200187815260200186815260200185151515158152602001841515151581526020018381526020018281526020019850505050505050505060405180910390f35b600060056000838152602001908152602001600020549050919050565b6009600082815260200190815260200160002060010160009054906101000a900473ffffffffffffffffffffffffffffffffffffffff1673ffffffffffffffffffffffffffffffffffffffff163373ffffffffffffffffffffffffffffffffffffffff161415156108b4576040517f08c379a000000000000000000000000000000000000000000000000000000000815260040180806020018281038252601a8152602001807f73656e6465722073686f756c6420626520746865206f776e657200000000000081525060200191505060405180910390fd5b62015180600860006009600085815260200190815260200160002060000154815260200190815260200160002060020154034211151561095c576040517f08c379a00000000000000000000000000000000000000000000000000000000081526004018080602001828103825260188152602001807f73686f756c6420626520757365642074686520642d646179000000000000000081525060200191505060405180910390fd5b60011515600860006009600085815260200190815260200160002060000154815260200190815260200160002060040160019054906101000a900460ff161515141515610a11576040517f08c379a000000000000000000000000000000000000000000000000000000000815260040180806020018281038252601a8152602001807f73656e6465722073686f756c6420626520746865206f776e657200000000000081525060200191505060405180910390fd5b60006009600083815260200190815260200160002060010160146101000a81548160ff02191690831515021790555060006009600083815260200190815260200160002060010160006101000a81548173ffffffffffffffffffffffffffffffffffffffff021916908373ffffffffffffffffffffffffffffffffffffffff16021790555050565b60025481565b600460006001815260200190815260200160002060020160009054906101000a900473ffffffffffffffffffffffffffffffffffffffff1673ffffffffffffffffffffffffffffffffffffffff163373ffffffffffffffffffffffffffffffffffffffff16141515610b1057600080fd5b610b186119e4565b60a0604051908101604052808481526020018373ffffffffffffffffffffffffffffffffffffffff16815260200160011515815260200160011515815260200160008152509050600360008154809291906001019190505550806009600060035481526020019081526020016000206000820151816000015560208201518160010160006101000a81548173ffffffffffffffffffffffffffffffffffffffff021916908373ffffffffffffffffffffffffffffffffffffffff16021790555060408201518160010160146101000a81548160ff02191690831515021790555060608201518160010160156101000a81548160ff021916908315150217905550608082015181600201559050506008600084815260200190815260200160002060050160008154809291906001019190505550505050565b610c58611a2e565b6080604051908101604052808581526020018481526020018381526020013373ffffffffffffffffffffffffffffffffffffffff1681525090506001600081548092919060010191905055508060066000600154815260200190815260200160002060008201518160000155602082015181600101556040820151816002015560608201518160030160006101000a81548173ffffffffffffffffffffffffffffffffffffffff021916908373ffffffffffffffffffffffffffffffffffffffff16021790555090505060015460076000868152602001908152602001600020819055507f5b64f9e5132d8fe9f5814564803f188c23f0930b57d1fecb0fad206dd33f7fb184600154604051808381526020018281526020019250505060405180910390a150505050565b60096020528060005260406000206000915090508060000154908060010160009054906101000a900473ffffffffffffffffffffffffffffffffffffffff16908060010160149054906101000a900460ff16908060010160159054906101000a900460ff16908060020154905085565b34600860008381526020019081526020016000206003015411151515610e81576040517f08c379a00000000000000000000000000000000000000000000000000000000081526004018080602001828103825260108152602001807f6e6f7420656e6f7567682066756e64730000000000000000000000000000000081525060200191505060405180910390fd5b600360008154809291906001019190505550610e9b6119e4565b60096000600354815260200190815260200160002060a06040519081016040529081600082015481526020016001820160009054906101000a900473ffffffffffffffffffffffffffffffffffffffff1673ffffffffffffffffffffffffffffffffffffffff1673ffffffffffffffffffffffffffffffffffffffff1681526020016001820160149054906101000a900460ff161515151581526020016001820160159054906101000a900460ff1615151515815260200160028201548152505090508181600001818152505060018160400190151590811515815250506000816060019015159081151581525050600860008381526020019081526020016000206003015481608001818152505033816020019073ffffffffffffffffffffffffffffffffffffffff16908173ffffffffffffffffffffffffffffffffffffffff16815250506008600083815260200190815260200160002060050160008154809291906001019190505550806080015160086000848152602001908152602001600020600601600082825401925050819055505050565b600060010284141515156110b0576040517f08c379a00000000000000000000000000000000000000000000000000000000081526004018080602001828103825260108152602001807f6e6f7420612076616c6964206e616d650000000000000000000000000000000081525060200191505060405180910390fd5b3373ffffffffffffffffffffffffffffffffffffffff166006600087815260200190815260200160002060030160009054906101000a900473ffffffffffffffffffffffffffffffffffffffff1673ffffffffffffffffffffffffffffffffffffffff16141515611189576040517f08c379a00000000000000000000000000000000000000000000000000000000081526004018080602001828103825260138152602001807f6e6f74207468652076616c7565206f776e65720000000000000000000000000081525060200191505060405180910390fd5b836006600087815260200190815260200160002060000181905550826006600087815260200190815260200160002060010181905550816006600087815260200190815260200160002060020181905550806006600087815260200190815260200160002060030160006101000a81548173ffffffffffffffffffffffffffffffffffffffff021916908373ffffffffffffffffffffffffffffffffffffffff1602179055507fe26003035522176e3be6bfe7c61cfcf2df1583733ac35046c6acb6eb91b67efc8486604051808381526020018281526020019250505060405180910390a15050505050565b60015481565b600060010283141515156112f7576040517f08c379a00000000000000000000000000000000000000000000000000000000081526004018080602001828103825260108152602001807f6e6f7420612076616c6964206e616d650000000000000000000000000000000081525060200191505060405180910390fd5b3373ffffffffffffffffffffffffffffffffffffffff166004600086815260200190815260200160002060020160009054906101000a900473ffffffffffffffffffffffffffffffffffffffff1673ffffffffffffffffffffffffffffffffffffffff161415156113d0576040517f08c379a000000000000000000000000000000000000000000000000000000000815260040180806020018281038252600e8152602001807f6e6f74207468652061727469737400000000000000000000000000000000000081525060200191505060405180910390fd5b826004600086815260200190815260200160002060000181905550816004600086815260200190815260200160002060010181905550806004600086815260200190815260200160002060020160006101000a81548173ffffffffffffffffffffffffffffffffffffffff021916908373ffffffffffffffffffffffffffffffffffffffff1602179055507f833e3b6f414bebdc5f15627d33af076b5addd538e2cc0e98ee7c483141838e45838533604051808481526020018381526020018273ffffffffffffffffffffffffffffffffffffffff1673ffffffffffffffffffffffffffffffffffffffff168152602001935050505060405180910390a150505050565b60016008600083815260200190815260200160002060040160016101000a81548160ff02191690831515021790555060016008600083815260200190815260200160002060040160006101000a81548160ff02191690831515021790555050565b60046020528060005260406000206000915090508060000154908060010154908060020160009054906101000a900473ffffffffffffffffffffffffffffffffffffffff16905083565b60066020528060005260406000206000915090508060000154908060010154908060020154908060030160009054906101000a900473ffffffffffffffffffffffffffffffffffffffff16905084565b60076020528060005260406000206000915090505481565b600060076000838152602001908152602001600020549050919050565b60005481565b60035481565b611618611a70565b6101006040519081016040528086815260200185815260200184815260200183815260200160001515815260200160001515815260200160008152602001600081525090506002600081548092919060010191905055506004600086815260200190815260200160002060020160009054906101000a900473ffffffffffffffffffffffffffffffffffffffff1673ffffffffffffffffffffffffffffffffffffffff163373ffffffffffffffffffffffffffffffffffffffff1614156116eb5760018160800190151590811515815250505b6006600085815260200190815260200160002060030160009054906101000a900473ffffffffffffffffffffffffffffffffffffffff1673ffffffffffffffffffffffffffffffffffffffff163373ffffffffffffffffffffffffffffffffffffffff1614156117675760018160a00190151590811515815250505b806008600060025481526020019081526020016000206000820151816000015560208201518160010155604082015181600201556060820151816003015560808201518160040160006101000a81548160ff02191690831515021790555060a08201518160040160016101000a81548160ff02191690831515021790555060c0820151816005015560e082015181600601559050507f2dfc4478070dbb3c880f968576d0d836d7c2da5d2ab770033e7602a7b57efdd983600460008881526020019081526020016000206000015460025460405180848152602001838152602001828152602001935050505060405180910390a15050505050565b61186a611aba565b6060604051908101604052808481526020018381526020013373ffffffffffffffffffffffffffffffffffffffff1681525090506000808154809291906001019190505550806004600080548152602001908152602001600020600082015181600001556020820151816001015560408201518160020160006101000a81548173ffffffffffffffffffffffffffffffffffffffff021916908373ffffffffffffffffffffffffffffffffffffffff16021790555090505060005460056000858152602001908152602001600020819055507fdb82e8980ecb3c1b7c20f6ddaa2c584b300fc582462a2db69f3177874104b36983600054604051808381526020018281526020019250505060405180910390a1505050565b60086020528060005260406000206000915090508060000154908060010154908060020154908060030154908060040160009054906101000a900460ff16908060040160019054906101000a900460ff16908060050154908060060154905088565b60a06040519081016040528060008152602001600073ffffffffffffffffffffffffffffffffffffffff168152602001600015158152602001600015158152602001600081525090565b608060405190810160405280600080191681526020016000815260200160008152602001600073ffffffffffffffffffffffffffffffffffffffff1681525090565b610100604051908101604052806000815260200160008152602001600081526020016000815260200160001515815260200160001515815260200160008152602001600081525090565b6060604051908101604052806000801916815260200160008152602001600073ffffffffffffffffffffffffffffffffffffffff168152509056fea165627a7a723058203d5de84ef929b9f4d8b6ee31af897ed3cbfba1aba630b6cfe9690181b897ca760029",
  "source": "pragma solidity >=0.5.0;\n\ncontract ticketingSystem{\n\n    // VARIABLES AND STRUCTS\n\n    //An artist as a name, a category and has an address\n    struct artist {\n        bytes32 name;\n        uint artistCategory;\n        address owner;\n\n    }\n\n    struct venue {\n\t\tbytes32 name;\n\t\tuint capacity;\n\t\tuint standardComission;\n\t\taddress payable owner;\n\t}\n\n\tstruct concert {\n\t\tuint artistId;\n\t\tuint venueId;\n\t\tuint concertDate;\n\t\tuint ticketPrice;\n\n        //not declared by user\n        bool validatedByArtist;\n\t\tbool validatedByVenue;\n\t\tuint totalSoldTicket;\n\t\tuint totalMoneyCollected;\n\t}\n    struct ticket {\n\t\tuint concertId;\n        address payable owner;\n\n\t\tbool isAvailable;\n        bool isAvailableForSale;\n\n        uint amountPaid;\n\t}\n\n    //Counts number of artists created\n    uint public artistCount = 0;\n    //Counts the number of venues\n    uint public venueCount = 0;\n    //Counts the number of concerts\n    uint public concertCount = 0;\n\n    uint public ticketCount = 0;\n\n    //MAPPINGS & ARRAYS\n    mapping(uint => artist) public artistsRegister;\n    mapping(bytes32=> uint) private artistsID;\n\n    mapping(uint => venue) public venuesRegister;\n    mapping(bytes32 => uint) public venuesID;\n\n    mapping(uint => concert) public concertsRegister;\n\n    mapping(uint => ticket) public ticketsRegister;\n\n    //EVENTS\n    event createdArtist(bytes32 name, uint id);\n    event modifiedArtist(bytes32 name, uint id, address sender);\n    event createdVenue(bytes32 name, uint id);\n    event modifiedVenue(bytes32 name, uint id);\n    event createdConcert(uint concertDate, bytes32 name, uint id);\n\n\n    constructor() public {\n    }\n\n    //FUNCTIONS TEST 1 -- ARTISTS\n\n    function createArtist(bytes32 _name, uint _artistCategory) public{\n        artist memory newArtist = artist(_name,_artistCategory, msg.sender);\n        artistCount++;\n        artistsRegister[artistCount] = newArtist;\n        artistsID[_name] = artistCount;\n        emit createdArtist(_name,artistCount);\n    }\n\n    function getArtistId(bytes32 _name) public view returns(uint ID){\n        return artistsID[_name];\n    }\n\n    function modifyArtist(uint _artistId, bytes32 _name, uint _artistCategory, address payable _newOwner) public{\n        require(_name != 0x00, \"not a valid name\");\n        require(artistsRegister[_artistId].owner == msg.sender, \"not the artist\");\n        artistsRegister[_artistId].name = _name;\n        artistsRegister[_artistId].artistCategory = _artistCategory;\n        artistsRegister[_artistId].owner = _newOwner;\n        emit modifiedArtist(_name,_artistId, msg.sender);\n    }\n\n    //FUNCTIONS TEST 2 -- VENUES\n    function createVenue(bytes32 _name, uint _capacity, uint _standardComission) public{\n        venue memory newVenue = venue(_name,_capacity,_standardComission, msg.sender);\n        venueCount++;\n        venuesRegister[venueCount] = newVenue;\n        venuesID[_name] = venueCount;\n        emit createdVenue(_name,venueCount);\n    }\n    function getVenueId(bytes32 _name) public view returns(uint ID){\n        return venuesID[_name];\n    }\n\n    function modifyVenue(uint _venueId, bytes32 _name, uint _capacity, uint _standardComission, address payable _newOwner) public{\n        require(_name != 0x00, \"not a valid name\");\n        require(venuesRegister[_venueId].owner == msg.sender, \"not the value owner\");\n\n        venuesRegister[_venueId].name = _name;\n        venuesRegister[_venueId].capacity = _capacity;\n        venuesRegister[_venueId].standardComission = _standardComission;\n        venuesRegister[_venueId].owner = _newOwner;\n        emit modifiedVenue(_name,_venueId);\n    }\n\n    //FUNCTIONS TEST 3 -- CONCERTS\n    function createConcert(uint _artistId, uint _venueId, uint _concertDate, uint _ticketPrice) public {\n        concert memory newConcert = concert(_artistId,_venueId,_concertDate, _ticketPrice, false,false,0,0);\n        concertCount++;\n        //Check if the concert's creator is an artist\n        //if true the concert is validated\n        if(msg.sender == artistsRegister[_artistId].owner){\n            newConcert.validatedByArtist = true;\n        }\n        //Same for the venue\n        if(msg.sender == venuesRegister[_venueId].owner){\n            newConcert.validatedByVenue = true;\n        }\n        //No tickets have been sold yet so we set the values to 0\n\n        concertsRegister[concertCount] = newConcert;\n        emit createdConcert(_concertDate,artistsRegister[_artistId].name,concertCount);\n    }\n\n    function validateConcert(uint _concertId) public {\n        concertsRegister[_concertId].validatedByVenue = true;\n        concertsRegister[_concertId].validatedByArtist = true;\n    }\n\n    //Creation of a ticket, only artists can create tickets\n    function emitTicket(uint _concertId, address payable _ticketOwner) public{\n        // in the test 3: \"Trying to emit tickets with another account, should fail\"\n        require(msg.sender == artistsRegister[1].owner);\n        ticket memory newTicket = ticket(_concertId, _ticketOwner, true, true, 0);\n        ticketCount++;\n        ticketsRegister[ticketCount] = newTicket;\n        concertsRegister[_concertId].totalSoldTicket++;\n    }\n\n    function useTicket(uint _ticketId) public {\n        //should be the owner\n        require(msg.sender == ticketsRegister[_ticketId].owner,\"sender should be the owner\");\n        //SHould be the d day,     oneWeek = 60*60*24 so should be <= 60*60*24\n        require(now > (concertsRegister[ticketsRegister[_ticketId].concertId].concertDate - 60*60*24), \"should be used the d-day\");\n        //Should be validated by the venue\n        require(concertsRegister[ticketsRegister[_ticketId].concertId].validatedByVenue == true,\"sender should be the owner\");\n\n        //switching the ticket parameters to \"used\"\n        ticketsRegister[_ticketId].isAvailable = false;\n        ticketsRegister[_ticketId].owner = 0x0000000000000000000000000000000000000000;\n    }\n\n    //FUNCTIONS TEST 4 -- BUY/SELL\n    function buyTicket(uint _concertId) public payable{\n        //need enough money\n        require(concertsRegister[_concertId].ticketPrice <= msg.value, \"not enough funds\");\n\n        ticketCount++;\n        ticket memory tmp = ticketsRegister[ticketCount];\n        tmp.concertId = _concertId;\n        tmp.isAvailable  = true;\n        tmp.isAvailableForSale  = false;\n        tmp.amountPaid = concertsRegister[_concertId].ticketPrice;\n        tmp.owner = msg.sender;\n\n        concertsRegister[_concertId].totalSoldTicket++;\n        concertsRegister[_concertId].totalMoneyCollected += tmp.amountPaid;\n\n    }\n\n    // function transferTicket(uint _ticketId, address payable _newOwner) public{\n    //     //Sender should be the owner\n    //     require(ticketsRegister[_ticketId].owner==msg.sender, \"not the ticket owner\");\n    //     ticketsRegister[_ticketId].owner = _newOwner;\n    // }\n\n\n\n\n\n}\n",
  "sourcePath": "/media/antmkr/SharedFolder/A4/S8/Blockchain/TD8/contracts/ticketingSystem.sol",
  "compiler": {
    "name": "solc",
    "version": "0.5.1+commit.c8a2cb62.Emscripten.clang"
  },
  "schemaVersion": "3.0.23",
  "updatedAt": "2020-03-24T00:43:48.631Z",
  "networkType": "ethereum",
  "devdoc": {
    "methods": {}
  },
  "userdoc": {
    "methods": {}
  }
}